:020000040800F2
:1000000000040020C1020008C3020008C302000867
:10001000C3020008C3020008C3020008C3020008AC
:10002000C3020008C3020008C302000811600008F0
:10003000C3020008C3020008C3020008C30200088C
:10004000C3020008C3020008C3020008C30200087C
:10005000C3020008C3020008C3020008C30200086C
:10006000C3020008C3020008C30200086D6B000849
:10007000816B0008956B0008A96B0008BD6B000838
:10008000D16B0008E56B0008C3020008C30200083A
:10009000C3020008C3020008C3020008C30200082C
:1000A000C3020008C3020008C3020008C30200081C
:1000B000C96F0008C3020008C3020008C302000899
:1000C000C3020008C3020008C3020008C3020008FC
:1000D000C3020008C3020008C3020008C3020008EC
:1000E000C3020008C3020008C3020008C3020008DC
:1000F000C3020008C3020008C3020008C3020008CC
:10010000C3020008C3020008C3020008C3020008BB
:10011000C3020008C3020008C3020008C3020008AB
:10012000F96B00080D6C0008216C0008356C0008A4
:10013000496C0008C3020008C3020008C30200089B
:10014000C3020008C3020008C3020008C30200087B
:10015000C3020008C3020008C3020008C30200086B
:10016000C3020008C3020008C30200081970000897
:10017000C3020008C3020008C3020008C30200084B
:10018000C3020008C3020008C3020008C30200083B
:10019000C3020008C3020008C3020008C30200082B
:1001A00072B6394880F30888384880F3098838489F
:1001B0004EF60851CEF20001086040F20000CCF289
:1001C00000004EF63471CEF200010860BFF34F8F8D
:1001D000BFF36F8F40F20000C0F2F0004EF688517E
:1001E000CEF200010860BFF34F8FBFF36F8F4FF067
:1001F0000000E1EE100A4EF63C71CEF200010860FC
:10020000062080F31488BFF36F8F05F0A9FC05F07A
:10021000EAFB4FF055301F491B4A91423CBF41F861
:10022000040BFAE71C49194A91423CBF41F8040B00
:10023000FAE71A491A4A1B4B9A423EBF51F8040B7F
:1002400042F8040BF8E700201749184A91423CBFD6
:1002500041F8040BFAE705F087FC05F082FC144C2A
:10026000144DAC4203DA54F8041B8847F9E701F057
:10027000FFFF114C114DAC4203DA54F8041B8847C0
:10028000F9E705F06FBC000000040020000C00201E
:10029000000000080000002000040020D0900008AA
:1002A000000C0020200E0020200E00203C26002004
:1002B000A0010008A0010008A0010008A00100089A
:1002C0006EE700F000F8FEE72DE9F04F2DED108A03
:1002D000C1F80CD0C3689D46BDEC108ABDE8F08F14
:1002E000002383F311882846A047002005F062FE12
:1002F000FEE705F01AFE00DFFEE7000053B94AB939
:10030000002908BF00281CBF4FF0FF314FF0FF301D
:1003100000F074B9ADF1080C6DE904CE00F006F8F8
:10032000DDF804E0DDE9022304B070472DE9F04771
:10033000089D04468E46002B4DD18A42944669D9C9
:10034000B2FA82F252B101FA02F3C2F1200120FAAC
:1003500001F10CFA02FC41EA030E94404FEA1C48FA
:10036000210CBEFBF8F61FFA8CF708FB16E341EAF6
:10037000034306FB07F199420AD91CEB030306F17C
:10038000FF3080F01F81994240F21C81023E63449D
:100390005B1AA4B2B3FBF8F008FB103344EA034441
:1003A00000FB07F7A7420AD91CEB040400F1FF3356
:1003B00080F00A81A74240F207816444023840EA93
:1003C0000640E41B00261DB1D4400023C5E90043CC
:1003D0003146BDE8F0878B4209D9002D00F0EF804F
:1003E0000026C5E9000130463146BDE8F087B3FA82
:1003F00083F6002E4AD18B4202D3824200F2F9806A
:10040000841A61EB030301209E46002DE0D0C5E96C
:10041000004EDDE702B9FFDEB2FA82F2002A40F0B8
:100420009280A1EB0C014FEA1C471FFA8CFE0126BB
:10043000200CB1FBF7F307FB131140EA01410EFB5F
:1004400003F0884208D91CEB010103F1FF3802D206
:10045000884200F2CB804346091AA4B2B1FBF7F000
:1004600007FB101144EA01440EFB00FEA64508D923
:100470001CEB040400F1FF3102D2A64500F2BB8060
:100480000846A4EB0E0440EA03409CE7C6F12007AF
:10049000B34022FA07FC4CEA030C20FA07F401FAF5
:1004A00006F31C43F9404FEA1C4900FA06F3B1FB7E
:1004B000F9F8200C1FFA8CFE09FB181140EA0141E3
:1004C00008FB0EF0884202FA06F20BD91CEB010180
:1004D00008F1FF3A80F08880884240F28580A8F1D8
:1004E00002086144091AA4B2B1FBF9F009FB10112A
:1004F00044EA014100FB0EFE8E4508D91CEB0101C8
:1005000000F1FF346CD28E456AD90238614440EA6A
:100510000840A0FB0294A1EB0E01A142C846A646EA
:1005200056D353D05DB1B3EB080261EB0E0101FA73
:1005300007F722FA06F3F1401F43C5E900710026D0
:100540003146BDE8F087C2F12003D8400CFA02FC26
:1005500021FA03F3914001434FEA1C471FFA8CFE36
:10056000B3FBF7F007FB10360B0C43EA064300FB26
:100570000EF69E4204FA02F408D91CEB030300F1C4
:10058000FF382FD29E422DD9023863449B1B89B27B
:10059000B3FBF7F607FB163341EA034106FB0EF304
:1005A0008B4208D91CEB010106F1FF3816D28B42B1
:1005B00014D9023E6144C91A46EA004638E72E467D
:1005C000284605E70646E3E61846F8E64B45A9D275
:1005D000B9EB020864EB0C0E0138A3E74646EAE7E4
:1005E000204694E74046D1E7D0467BE7023B614492
:1005F00032E7304609E76444023842E7704700BFFB
:1006000001F0FF01102A2BDB10F0070F08D010F8C3
:10061000013B013A8B422DD010F0070F42B3F6D1C7
:10062000F0B441EA012141EA014122F007047FF0E0
:1006300000070023F0E80256083C85EA010586EA37
:10064000010685FA47F5A3FA87F586FA47F6A5FA73
:1006500087F68EB9EED1F0BC01F0FF0102F007027F
:1006600032B110F8013B013A83EA010313B1F8D12A
:100670000020704701387047002D06BF354603380B
:10068000073815F0010F07D1013015F4807F02BF44
:10069000013015F4C03F0130F0BC0138704700BF95
:1006A00010B50C4600F00AF820B10A2124B1A920A7
:1006B00000F003FA002010BDAA20F9E708B521B127
:1006C000A92000F00AFA002008BDAA20F9E70120BD
:1006D00070470120704708B5FFF7FBFF08BD704762
:1006E00008B5FFF7FCFF08BD13B502AB03E9030033
:1006F0000F4B1B78B3B99DF8023073B16AB100F0AB
:1007000035FD04460146009800F0F0FC00992046B3
:1007100002B0BDE8104001F047BB009800F008FDB2
:100720000446F3E7009800F021FD0099F0E700BFD0
:10073000210E0020034610B400885C880A4640EA77
:10074000044099885DF8044BFFF7CEBF0120704745
:1007500010B500210446FFF7EDFF2146FFF7C0FF6B
:1007600010BD01F05ABC01F05DBC704708B500F047
:10077000FFFBFFF7FAFF46F2A81005F020FCBDE8EA
:10078000084004F02DBE38B501210546FFF7D2FF21
:1007900029460446FFF79FFF08B9002038BD2946C7
:1007A000204604F009FB0028F7D02946204604F033
:1007B00015F90028F1D02946204604F07BFA0028DC
:1007C000EBD02946204604F09DF80028E5D0AB7810
:1007D0005BB145F65B539C421CD00AD8B4F5B84FC8
:1007E00012D045F6DF439C4211D02846FFF76FFF39
:1007F000D4E745F65C539C420FD045F65D539C42CE
:10080000F3D101F0A1F8F0E7FFF7B0FFC5E701F081
:1008100039F9C2E701F0A4F8E7E701F0A4F8E4E74A
:1008200008B504F03EFD03F091FB00F023F8BDE8AD
:100830000840012003F09CBE08B500F020F800201D
:1008400003F096FEBDE8084004F030BD704708B5DF
:10085000FFF7FCFF08BD0120704708B5FFF7FBFF5D
:1008600008BD704710B50446FFF7F1FF2046FFF7BB
:10087000F4FF10BD08B50020FFF7F4FF08BD08B570
:1008800004F0C6FBFFF7EEFF08BD000008B504F05A
:10089000BFFB044A1178814202D01070FFF7E2FFDB
:1008A00008BD00BF200E002030B587B06C4684E83C
:1008B00003009DF80230BDF804500BB100F086FF34
:1008C0000023ADF8163094E8030004AC0490ADF8B2
:1008D000141094E8030002904DB1BDF808204FF6C3
:1008E000FF739A4203D02046FFF730FF18B194E817
:1008F000030000F0A1FE07B030BD008800F056BC38
:1009000010B50446002876D0822813D104F080FB6D
:10091000810770D4392000F0FDFE00F087FF42F21D
:10092000107005F04CFB392000F0FCFEBDE81040D3
:1009300000F07CBF83280ED104F06AFBC2075AD4B2
:10094000532000F0E7FE00F071FF42F2107005F056
:1009500036FB5320E8E784280ED104F059FB430707
:1009600049D4472000F0D6FE00F060FF42F210703C
:1009700005F025FB4720D7E7031FDBB2A02B0ED8DD
:100980001D4B0146186804F0ABFB20B1204600F077
:10099000C9FE00F04BFF204600F0BCFEC6E700F1A8
:1009A0002003DBB2072B07D800F007040120A0408A
:1009B000C0B200F0E5FEB9E700F15B03DBB2022B49
:1009C00005D82438BDE8104080B204F04BBB00F1DC
:1009D0005803DBB2162B06D8084ABDE8104032F89F
:1009E000130004F04FBBEC2805D901F0B9FCBDE8B9
:1009F000104001F089BD10BD840D002090890008D1
:100A000008B5002858D082280FD104F001FB8107D7
:100A100052D5392000F07EFE00F008FF392000F0AA
:100A200081FEBDE8084000F001BF83280AD104F030
:100A3000EFFAC20740D5532000F06CFE00F0F6FE3E
:100A40005320ECE784280AD104F0E2FA430733D5B7
:100A5000472000F05FFE00F0E9FE4720DFE7021FBD
:100A6000D2B2A02ADBD900F12002D2B2072A07D8DD
:100A700000F0070301209840C0B200F089FED0E7E3
:100A800000F15B02D2B2022A04D8BDE8084000207F
:100A900004F0E8BA00F15802D2B2162A04D8BDE830
:100AA0000840002004F0EEBAEC2805D901F0B6FCAD
:100AB000BDE8084001F028BD08BD38B505460C4624
:100AC000FFF71EFF1CB92846FFF79AFF38BD6420C8
:100AD000013C05F074FAA4B2F4E708B539280CBF5C
:100AE00050210A21FFF7E9FF08BD08B528B100F041
:100AF00047FEBDE8084000F099BE08BD08B528B122
:100B000000F046FEBDE8084000F090BE08BD0000C1
:100B10002DE9F3478779857881460C4600F020FE61
:100B20003F098046C8B1A846BDB1C4F3072303F00E
:100B3000F003402B04D004F12003DBB2072B1FD9B4
:100B4000A84B5B785E071BD4022000F0C9FE00F0C2
:100B500007FE80F001005FFA80F8C4F3033ABAF1AF
:100B60000B0F3DD8DFE81AF00F000F005F005F00A9
:100B7000C100D9003C003C00E30040014F014F019F
:100B80004FF00008E9E7C4F30723C4F3032613F08A
:100B9000F00F18BF3601E4B285B156B104F120035D
:100BA000DBB2072B304600D92CB900F0E9FD00F08C
:100BB0003DFE20465DE000F0F9FDF8E72046FFF736
:100BC0001FFF6EB104F12003DBB2072B304600D9C2
:100BD00014B900F0DDFD01E000F0F0FD00F026FEAC
:100BE000AAF1080ABAF1030F03D804F011FAFFF7CB
:100BF00039FEB8F1000F00F05E8100F0A9FD10F0A1
:100C0000010040F0588189F8020000F099FD00F0E1
:100C100033FA484600F068F900F092FD02B0BDE8F2
:100C2000F04700F033BAC4F3072303F0F003C4F332
:100C30000326202BE4B218BF360174B1012C3ED03C
:100C4000002D44D0002F3DD099F80630D907B0D5FB
:100C50006FF3071389F8063034E0624B5B7858076E
:100C600011D54DB126B1304600F08AFD00F0DEFD11
:100C70000020FFF745FEB3E72846FFF7C1FE002E30
:100C8000AED03046A5E785B137B900F0A5FD3043B9
:100C9000C0B2FFF72AFFA3E7012FF6D100F09CFDB9
:100CA0003043C0B200F0A4FD9AE72FB900F0B2FDC6
:100CB0003046FFF723FF93E7012F91D0F6E71DB1F0
:100CC000052F8DD83046E4E7042F89D8F0E7002FB0
:100CD000EED0392C0CBF4FF4FA504FF47A7005F077
:100CE0006EF92046FFF78CFE7AE714F4406FC4F3E8
:100CF000812308D0012B7FF473AF65B1C4F30900E1
:100D000004F0C0F96CE725B1C4F3090004F0AAF9B6
:100D100066E72846FAE72846F2E7E0B225B101F097
:100D20001FFB01F0F1FB5BE701F078FBF9E714F43E
:100D3000407F27D1002D7FF453AFC4F34210E20669
:100D40004FEA800048BF0F25C0B248BF854004F07D
:100D50000F03C4F3812448BFED438340022C45EACE
:100D6000030009D0032C0AD0012C02D000F05AF95C
:100D700036E700F04FF933E700F05CF930E700F0B8
:100D800046F92DE7C4F30122FDB112F0010F3FF443
:100D900027AFC4F342108000C3B204F00F0000FA82
:100DA00003F214F010001CBF0F209840C4F38124FC
:100DB00018BFC043022C40EA02000CD0032C0DD017
:100DC000012C05D000F080F90AE712F0020FDEE7EF
:100DD00000F072F904E700F07FF901E700F038F95C
:100DE000FEE600BF08220020E6B2C4F303241DB1D2
:100DF000204600F041F965E73046FFF77FFE2046C8
:100E000000F044F9ECE6E6B2A6F1F003042B3DD87D
:100E1000DFE803F003220E151E003DB1042F3FF65C
:100E2000DFAEC4F3042000F03DF9D9E6052FF6E764
:100E3000C4F30420002DE3D100F01EF9D0E625B163
:100E4000C4F3042000F013F9CAE600F00DF9C7E678
:100E50001A4B5B785B0704D5C4F30420002DCFD078
:100E6000EAE74DB1C4F30420019000F005F90198C0
:100E7000032100F011FDB3E6012000F031FD012F48
:100E80007FF6AEAE022000F02BFDA9E62DB10FB12A
:100E90003046EEE6C4F30420CEE74FB1392E0CBF46
:100EA0004FF4FA504FF47A7005F089F8304619E79C
:100EB000C4F30420A4E702B0BDE8F08708220020B4
:100EC00013B501880446807800F07CF90146019151
:100ED00000F00AF900F09AF80199204602B0BDE846
:100EE0001040FFF715BE000013B504460146062268
:100EF000684606F006FCA388F3B1BDF800204FF663
:100F0000FF739A4218D02046FFF73DFC70B900F0FD
:100F100027FC88B1A3787BB1084B5B785B070BD4C7
:100F2000022002B0BDE8104000F0DABC2046FFF716
:100F3000C7FF2046FFF70CFC02B010BD08220020BE
:100F400008B5002004F08EF8002004F09BF800F0B3
:100F50003DFC00F06BFC01F0B5FBBDE8084001F082
:100F6000D3BA08B500F0E6FBBDE80840FFF7E8BFDC
:100F700008B500F015FCBDE80840FFF7F2BFC0F36C
:100F80000333062BC2B213D094BF0E33063303F0E3
:100F90000F03012B10D8F02A10D004D8E72A8CBFF9
:100FA000002001207047F42A14BF00200120704760
:100FB000E72A03D9F12AF7E700207047012070479C
:100FC00008B5008800F0F2F8BDE80840FFF7D7BF89
:100FD00082B002AB03E9030002B0704782B002ABFB
:100FE00003E9030002B07047704708B5FFF7FCFF44
:100FF00008BD000008B5FFF7F8FF034B1860BDE817
:101000000840FFF79DBF00BF240E00207047FFF788
:10101000F1BF0000024B1B681843FFF7EBBF00BF96
:10102000240E0020024B1B681840FFF7E3BF00BFEF
:10103000240E0020024B1B685840FFF7DBBF00BFA7
:10104000240E0020704708B5FFF7FCFF08BD000024
:1010500008B5FFF7F8FF034B1860BDE80840FFF73D
:101060006FBF00BF280E00200020FFF7F1BF012353
:1010700003FA00F0FFF7ECBF012303FA00F0024B84
:101080001B681843FFF7E4BF280E0020012303FA72
:1010900000F0034B1B6823EA0000FFF7D9BF00BF35
:1010A000280E0020012303FA00F0024B1B68584071
:1010B000FFF7CEBF280E0020024B1B681843FFF736
:1010C000C7BF00BF280E0020024B1B681840FFF767
:1010D000BFBF00BF280E0020024B1B685840FFF71F
:1010E000B7BF00BF280E002070470000C0F30723E1
:1010F00037B500EBC303012200F007008240C3F3C1
:10110000C4000A4B00EB8000D2B2184400240578DA
:1011100021FA04F343F300036B40134001346B40A6
:10112000052C00F8013BF2D103B030BD2C0E00209D
:10113000C0F3072300EBC3030B4AC3F3C40313B587
:1011400003EB8303002100F007041344084613F85F
:10115000012BE24002F001028A40013110430529CF
:10116000C0B2F4D102B010BD2C0E00200D4B73B5EF
:101170001E680D4BADF804001B681F241E4326FAA1
:1011800004F3DB07E5B205D4013CF8D2002528467C
:1011900002B070BD0199284600F016FE80B2012809
:1011A000F2D0F4E7280E0020240E002007B5ADF899
:1011B00004000198FFF7DAFF019903B05DF804EB32
:1011C00000F002BE13B5104BADF804101B782BB124
:1011D000019802B0BDE81040FFF7E8BF70B1019878
:1011E000FFF7C4FF044601460198FFF77FFF01990E
:1011F000204602B0BDE8104000F0E6BD0198FFF7C0
:1012000097FF0446F3E700BF210E0020F8B50C4B12
:101210000C4E1C780C4D3378A34200D1F8BD05EB81
:10122000C40335F834005F889A88D98840EA0740BB
:1012300042EA01410134FFF7D1FE04F00704EAE776
:10124000AD0E0020AC0E00206C0E0020064B10B43A
:1012500018885C889A88D98840EA044042EA0141AB
:101260005DF8044BFFF7BABE640E0020F7B5234CBF
:10127000A37913F0F00F08D1A37833B1204B214F9D
:101280001D78214E3B78AB4201D103B0F0BD214621
:101290000622684606F035FAA18851B3BDF8002051
:1012A0004FF6FF739A4224D006EBC50360785A7854
:1012B00090421ED1207816F83520904219D19A78A4
:1012C000BAB99A88521A1149098892B2914210D932
:1012D000A2790A48012161F30712A2719A7961F398
:1012E00007129A71FFF700FE03B0BDE8F040FFF768
:1012F0008DBF013505F00705C4E700BF640E00206F
:10130000AD0E0020AC0E00206C0E0020820D0020DF
:101310002DE9F04F87B0044602AB0146B04D0622DE
:10132000184606F0EEF923780193062263780093BD
:10133000294604A8A778B4F8048006F0E2F9B5F8C5
:10134000049002ABB9F1000F00F0F580BDF8102059
:101350004FF6FF7B5A4500F0EE80AE78002E00F08D
:10136000EA80A04A95F806A01288A8EB09091FFA9E
:1013700089F94A450AF0F00A40F2B180062229466E
:1013800004A8BAF1000F6FD106F0BBF9BDF8103018
:101390005B45B94611D022889A420ED16FB9AB791C
:1013A000012262F30713AB71FFF750FF2846FFF7E6
:1013B0009BFDAB79A37100262BE0019B8DF81030CB
:1013C000009B8DF81130B8F1000F26D0BDF8102029
:1013D0004FF6FF739A4220D00FBB834A834B10789D
:1013E0001B78834A83421FD10298FFF7DFFEC0F3C8
:1013F0000332012AC3B229D90E3202F00F02012AA8
:101400002DD810F4706F26D0A27912F0F00F22D1EF
:101410004E46304607B0BDE8F08F002FCBD0AB79F9
:1014200043F00103AB71C6E702EBC301009F4D78A7
:10143000BD4207D112F83350019FBD4202D18978D5
:101440000029B8D1013303F00703CBE710F4706F24
:1014500001D0002BDCD02033DBB2072BD8D92046BB
:10146000FFF742FDB146D3E706F04BF9BDF8103067
:101470005B4510D022889A420DD167B9AB79A37130
:101480002046FFF731FD08222146284606F039F9AB
:10149000FFF7DCFEBDE72046FFF792FDD8B1D7B1DC
:1014A000AB791F2B0CD92A88ADF8102004A8002294
:1014B0008DF81220ADF814808DF81630FFF714FD6A
:1014C00008222146464806F01CF9FFF7CFFEFFF739
:1014D000BDFE01269DE72046FFF706FDF9E7BAF1BC
:1014E000000F0ED193E80300FFF772FD2846FFF7C7
:1014F000FBFC08225146284606F011F9FFF7A6FE2C
:1015000059E70622294604A806F0FBF8BDF810307A
:101510005B45C0D02A8823889A42BCD1002FBAD11B
:10152000AB79A3712046FFF7DFFC08223946284635
:1015300006F0F5F86DE72A49062204A806F0E1F85E
:10154000B9F1000F60D0BDF810204FF6FF7A524578
:101550005AD0AE78002E57D1224AA8EB090812883B
:101560001FFA88F8424502AB44D93E46002FB2D05C
:101570001B49062204A806F0C4F8BDF810305345F4
:1015800020D02A8823889A421CD1AB79DA0713D459
:1015900013F0F00210D0F02AA37106D0DBB2C3F32F
:1015A0000312013262F30713A3712046FFF79CFC7C
:1015B0000B480822214669E708222146084806F020
:1015C000A0F826E72046FFF7FBFC00287FF478AF61
:1015D000AB79204643F00103AB71FFF785FC18E7B8
:1015E000640E0020820D0020AC0E0020AD0E002005
:1015F0006C0E002093E80300FFF7EAFC0822314656
:101600000C4806F08CF843E7002F3FF464AF204607
:10161000FFF7D6FC064600283FF45DAF08222146BE
:10162000044806F06EF80348FFF767F9FFF71EFE5F
:101630002EE700BF640E0020F0B587B06C4684E84A
:1016400003002046FFF764FE2E4FBDF804202E4D08
:10165000064678B194E803000490ADF814103AB14E
:10166000BDF810204FF6FF739A4201D0FFF7B6FC89
:10167000264C41E094E8030004AB83E803000290A9
:10168000002AF5D0BDF8084038782A784FF6FF7167
:101690008C42EDD0441C04F0070494420AD0194651
:1016A0001A4B082203EBC00006F02BF83C70FFF742
:1016B000ADFDDDE7FFF75CFC0822314614483E70C3
:1016C0002E7006F02CF8D3E704EBC000FFF720FEE5
:1016D000B0B12B7834F8330004EBC3035E889A88EA
:1016E000D98840EA064042EA0141FFF777FC2B78AF
:1016F000013303F007032B7028783B788342E3D152
:1017000007B0F0BDAC0E0020AD0E00206C0E002026
:10171000640E0020024B0146186803F04DBD00BF67
:10172000840D0020024B0146186803F05FBD00BF26
:10173000840D0020014B186803F072BD840D002059
:10174000024B93F90000C0F3C7007047EE0E002073
:10175000024B187800F00700704700BFEE0E002023
:10176000034B187810F0070018BF0120704700BF26
:10177000EE0E0020014B1878704700BFF00E0020DD
:10178000024B1A7810431870704700BFF00E00200B
:10179000024A137823EA000010707047F00E002010
:1017A000014B00221A707047F00E0020024B1A788D
:1017B00010431870704700BFF10E0020024A1378E2
:1017C00023EA000010707047F10E0020014B002248
:1017D0001A707047F10E0020014B1878704700BF57
:1017E000EF0E0020704708B5FFF7FCFF08BD0000B2
:1017F000064A5278520708B506D4054A1178814244
:1018000002D01070FFF7EFFF08BD00BF08220020D4
:10181000EF0E002008B5044B1A781AB1002018709A
:10182000FFF7E1FF08BD00BFEF0E002010B5124B1F
:10183000124A1B781278124C1343124A206812780D
:10184000037032B11343037003F02CFC08B1FFF7AF
:10185000E1FF24680C492022204605F042FF48B1F0
:1018600021460948202205F04CFF2046BDE81040E3
:1018700003F0D6BB10BD00BFF00E0020F10E00201B
:10188000840D0020EF0E0020CE0E0020704708B51A
:10189000FFF7FCFF08BD00000A4A5278520710B556
:1018A0000CD4094C41EAC0012170FFF7E5FB94F923
:1018B0000000C0F3C700FFF7EAFF10BDBDE810400D
:1018C000FFF7DABB08220020EE0E002008B5034B1C
:1018D00000201870FFF7DBFF08BD00BFEE0E0020F0
:1018E00008B50C4A92F9003023EA000040B21070AB
:1018F00042070ED1DBB283420BD0074B5B785B070C
:1019000007D4C0F3C700FFF7C1FBBDE80840FFF7ED
:10191000DDBF08BDEE0E002008220020094A08B5F0
:101920005378C3F3800181420AD060F3820353707D
:10193000108800F041F8BDE808400220FFF7D0BF52
:1019400008BD00BF08220020044B5878C0F3800077
:1019500080F0010000F00100FFF7E0BF0822002046
:101960000120FFF7DBBF0020FFF7D8BF08B501F06B
:10197000F1F8BDE808404FF6FF71002000F02EBFDF
:1019800008B5002000F0C3FE4FF6E963C31A5842C1
:10199000584108BD022000F0ABBE032000F0A8BEF5
:1019A00010B5042000F0A4FE0446222000F0A0FEA2
:1019B00044EA002080B210BD10B5C1B20446042034
:1019C00000F0FEFE210A2220BDE8104000F0F8BE23
:1019D00001460F2000F010BF0146132000F00CBF9D
:1019E0000020FFF7F9BF08B50020FFF7F1FFFFF770
:1019F000F7FF08BD10B501F0ADF84FF6E961002022
:101A000000F0ECFE0021022000F0DAFE00210320AD
:101A1000002400F0D5FE1A4B214604201C6000F083
:101A2000CFFE2146222000F0CBFE2146052000F00B
:101A3000C7FE2146062000F0C3FEFF21072000F06C
:101A4000BFFE2146082000F0D7FE21460D2000F001
:101A5000B7FE2146182000F0CFFE2146172000F0E7
:101A6000AFFE21461C2000F0C7FE2146202000F0DA
:101A7000B5FE2146182000F0BFFEFFF7B4FF10BDF1
:101A8000240E0020FFF7B6BF01460E2000F098BEDE
:101A900008B503F05DFC024B1860024B186008BDEE
:101AA000F80E0020FC0E002008B503F051FC024B9C
:101AB0001860024B186008BDF80E0020F40E0020DC
:101AC0007047704708B5FFF7FCFF08BD704708B5C1
:101AD000FFF7FCFF08BD000008B5054800F05AFA02
:101AE00001F036F8FFF7ECFFFFF7ECFF08BD00BF91
:101AF0008D1F00080120704708B5FFF7FBFF08BDE8
:101B00007047704708B5FFF7FBFFFFF7FAFF08BD06
:101B100008B500F061FAFEF7A4FEBDE8084002F047
:101B200003BD08B503F012FC00F022FBFFF7F0FF45
:101B300003F058F8FFF7CBFF08BD00002DE9F04F88
:101B400085B000F02FFB814608B1FFF7A1FF002709
:101B5000DFF8CCA03C465FFA87FB584600F066FAF7
:101B60001AF8016B864280463CD02C4B1B789B07B1
:101B700001D500F061FA86EA0806F3B20093002569
:101B80000126009B334227D0FFF7B6FF18EA060F65
:101B900014BF0122002290B18DF80A2001928DF825
:101BA00008508DF809B003F009FC40F00100ADF8D1
:101BB0000C0002AB93E80300FEF776FE019A1AF8D8
:101BC000011C013471400AF8011C58462946E4B250
:101BD00002F098F9032C1AD80135EDB27300082DE4
:101BE000DEB2CED101370B2FB5D184B94FF6FF73DA
:101BF000ADF808308DF80A4003F0E0FB40F001003A
:101C0000ADF80C0004AB13E90300FEF74DFEB9F18B
:101C1000000018BF012005B0BDE8F08F0B0F0020B9
:101C2000000F002008B5FFF789FF02F08FF902F0DE
:101C3000F9FF08B1FFF738FF00F082FCBDE808406B
:101C4000FEF724BE10B500F0CBF8B0F5A44F044663
:101C50003ED2B0F5A24F80F08B80E72815D8DF2860
:101C60000AD8A7280AD8A42870D8012804D0031FAE
:101C70009BB2A12B28BF0024204610BDA0F1A803D1
:101C80009BB2162B67D90024F6E7B0F5A04F0FD210
:101C9000B0F5804F67D2FF2804D8EC28F3D940F480
:101CA000A04413E0A0F580739BB2B3F5F85FE1E7C1
:101CB000C0F38103C0F301125B0100F003000124B3
:101CC00043EA022384401C4344F40C44A4B2D3E707
:101CD000B0F5AC4F1AD2B0F5AA4FC0B24ED2B4F59F
:101CE000A84F0ED28308B4F5A64F00F003004FF0C2
:101CF000010404FA00F040EA4314E5D344F40A4432
:101D0000E4E74AF2F40444EA0024B5E7B0F5B44F3E
:101D10000CD2B0F5B24F39D2A0F5B0439BB2FF2B35
:101D2000B1D84AF2F00040EA0424CFE7A0F5C0435E
:101D30009BB2B3F5005FA6D2C0F3042000F0D0F848
:101D4000000200F4F850E4B204431CE0A0F12404C3
:101D500044F48044BAE75834124BE4B233F81440E8
:101D600044F4884488E7C0F30B0444F4204483E738
:101D7000C4B24AF2F10343EA04247DE700F0B0F86C
:101D8000040204F4F85444F4005475E700F00F0022
:101D900000F0A6F8C4F3031440EA042444F4104409
:101DA00094E700BFBE890008C1F307230B2202FBA2
:101DB0000030C000034B50FA81F182B033F81100BB
:101DC00002B070473088000807B5ADF804100199DB
:101DD000FFF7EAFF03B05DF804EBFFF733BF000045
:101DE000E7284DD8DF2807D8312861D00ED8292818
:101DF00057D02A2863D07047A0F1E003072B3FD8C3
:101E0000DFE803F0123E2126303E3A3F392804D065
:101E1000822802D035283DD07047304B1B7813F014
:101E2000030F18BFE02070472C4A1378D9074DD410
:101E3000527812F0010F23D013F0100F08BFE320E7
:101E400018BF00207047254B1B7813F0040FF2E7F2
:101E5000224A137859073BD45278D2073AD413F068
:101E6000100FEDE71D4B5A78910709D51B7813F039
:101E7000100F08BFE720E3E7184B1B781A07F6D4CA
:101E80007047164A1378190726D452789207E6D578
:101E9000E420F5E7114B1B7813F0200F18BF292021
:101EA00070470E4B1B7813F0200F18BF352070477A
:101EB0000A4B1B7813F0400F18BF2A207047074BBE
:101EC0001B7813F0400F18BF31207047392070473E
:101ED000E2207047E0207047E6207047082200208B
:101EE000294A1378590707D500F01801082927D186
:101EF00000F0F70040F00400190707D500F01801C2
:101F0000182926D100F0E70040F014005278D107DC
:101F100007D500F01801082924D100F0F70040F09F
:101F20000100920707D500F01802182A23D100F00B
:101F3000E70040F01100DB0648BF00F0E700704703
:101F400000F01401042904BF00F0FB0040F0080079
:101F5000D2E700F01401142904BF00F0EB0040F0B8
:101F60001800D3E700F01101012904BF00F0FE00C2
:101F700040F00800D5E700F01102112A04BF00F07C
:101F8000EE0040F01800D6E708220020002070473D
:101F900000207047014B1860704700BF880D00207B
:101FA000FFF7E4BC08B500F0FDF84FF47A7004F0D8
:101FB00006F800F0F7F8012000F038F8030705D51F
:101FC000FFF7EEFFBDE8084003F00ABA08BD08B508
:101FD000FFF7E8FF08BD000008B5FFF7D1FC08B91E
:101FE000FFF750FDFFF7D6FC084B1870FFF7D8FC41
:101FF000074B1880FFF7EBFFFFF7CFFCFFF707F861
:10200000044B1868BDE80840FFF71DB80B0F00200F
:1020100008220020280E0020704708B5FFF7FCFFBB
:1020200008BD704708B5FFF7FCFF08BD014B185C01
:10203000704700BF152200207047032003F0BFBF88
:1020400000BF00BF00BF00BF00BF00BF00BF00BF98
:1020500000BF00BF00BF00BF00BF00BF00BF00BF88
:1020600000BF00BF704708B5FFF7E7FF08BD08B520
:10207000202282F31188012100F00F03994020F003
:102080000F0004F0ECFD002383F3118808BD00006D
:1020900038B50C4D0B2455F8040B421C01D0FFF74A
:1020A000E6FF013C14F0FF04F5D1074D082455F874
:1020B000040B431C01D0FFF7DAFF013C14F0FF04CE
:1020C000F5D138BD0C8A0008EC8900082DE9F843E9
:1020D000254F57F821305C1C06460D4640D0202283
:1020E00082F311884FF0010823F00F0903F00F036A
:1020F00008FA03F4214642464846A4B204F0AFFD74
:10210000A9F81A40002484F31188FFF799FF174AB1
:10211000082352F8041B481C24D021F00F0001F0C2
:102120000F01006920FA01F111F0010F0CBF4146C7
:102130000021013B21434FEA480813F0FF03CCB2D2
:102140005FFA88F8E5D157F82500431C01D0FFF766
:102150008EFF211E18BF01212846FFF784FF74550A
:10216000BDE8F8830021E4E70C8A0008EC89000848
:1021700010B50B24FFF78CFF22460021074805F01D
:10218000CEFA22460021064805F0C9FA204600F0A2
:1021900037F8BDE81040FEF7E4BA00BF1522002072
:1021A0000A22002030B585B0002401940294ADF8D5
:1021B0000C408DF80E40E1B201A80134FFF786FF14
:1021C0000B2CF8D10C48224601A905F08AFA002808
:1021D00014BF0125002504D00748224601A905F0B7
:1021E00090FA064904482B460B2200F00BF8FEF744
:1021F000BAFA284605B030BD0A2200201522002078
:1022000070470000F8B50F4C06460F4615462BB137
:102210000123237003F09CF80B4B186023782BB13B
:10222000094B186803F0D6F8042808D8F8BDF25C0A
:10223000FA5401339D42FADC00232370F6E70023B1
:10224000F8E700BF0C0F0020100F002008B503F0C6
:10225000DBFBFFF766FCBDE8084003F0EBBB08B50D
:1022600003F0EEFBFFF7DEFCBDE8084003F008BC1E
:1022700008B503F031F803F0C4FBFFF72DFCFFF7BE
:10228000E5FFFFF7ECFFFFF73DFCFAE7164B1B7885
:10229000D90707D5154B187840007F2820D808B3F8
:1022A000C0B270479A0703D5104B18788000F4E746
:1022B0005B0703D50D4B1878C000EEE70C4B1B787D
:1022C00063B10C4A0949127808789342F4D210FBA2
:1022D00003F0C000B0FBF2F080B2DEE70820DFE7D9
:1022E0007F207047012070471E0F00208E0D0020B8
:1022F0001F0F00208F0D0020154B1B78D90705D527
:10230000144B1878800800B3C0B270479A0703D501
:10231000104B18784008F6E75B0705D50D4B187889
:102320007F28F0D97F2070470B4B1B785BB10B4A9D
:10233000084912780878934236BF10FB03F080B248
:10234000B0FBF2F0ECE70120DEE70120704700BFB0
:102350001E0F0020920D0020200F0020930D002062
:10236000ED2808B505D1FFF791FF4042294BD87001
:1023700008BDEE2802D1FFF789FFF7E7EF2805D166
:10238000FFF784FF4042234B9870F1E7F02802D119
:10239000FFF77CFFF7E7F92804D1FFF7ADFF1D4BEE
:1023A0001871E5E7FA2803D1FFF7A6FF4042F6E7E8
:1023B000FB2805D1FFF7A0FF4042164B5871D7E725
:1023C000FC2802D1FFF798FFF7E700F10F03DBB21B
:1023D000072B08D80F4A0123F13803FA00F053788D
:1023E00018435070C4E7FD2805D10B4A137843F019
:1023F00001031370BCE7FE2804D1074A137843F0A9
:102400000203F6E7FF28B3D1034A137843F004032D
:10241000EFE700BF180F00201E0F0020364BED28FD
:1024200093F902200AD193F9031000290CDA002154
:10243000D97052B9314A0021117006E0EE280DD151
:1024400093F903100029F2DC72B11A795B79134316
:102450005AB2002B4FD12A4B1A707047EF2806D181
:10246000002AF1DA00229A7093F90320E1E7F028BC
:1024700002D1002AF6DCE7E7F92893F9041004D129
:102480000029E1DD00211971DEE7FA2802D10029D7
:10249000DADAF7E7FB2893F9051004D10029D3DA3B
:1024A00000215971D0E7FC2802D10029F8DCCBE7E4
:1024B00000F10F01C9B2072907D8F1380121814085
:1024C000587820EA01005870BEE7FD2805D10D4874
:1024D000017821F001010170B6E7FE2804D1094816
:1024E000017821F00201F6E7FF28ADD10548017817
:1024F00021F00401EFE77047180F00201F0F0020A4
:10250000200F00201E0F002008B502F057FF094BD6
:10251000DA7899780A431CBF074A10801A795B79E8
:1025200013431CBF054B1880BDE80840014802F06A
:102530008FBD00BF180F0020140F0020160F0020C1
:102540002DE9F047564C94F9028094F9037094F900
:10255000046094F9055094F800A094F801900023C9
:10256000A370E3702371637158EA07030AD04D4BDF
:10257000188802F028FF4C490B783BB34B4A12787D
:1025800090422DDC56EA05030BD0494B188802F027
:102590001AFF48490B78002B4ED0474A12789042D8
:1025A00054DCE278A378134322791343627913430E
:1025B00001D0FFF7A9FF84F800A084F8019084F807
:1025C0000280E77026716571BDE8F0873B4A12789A
:1025D00002EB8202B0EB420FD4DD01330B7001E05D
:1025E000FF2BFAD1B8F1000F08D0FFF74FFEB8F17A
:1025F000000FCCBF0123FF235843A0703FB1FFF76A
:1026000045FE002FCCBF0123FF235843E07094F90F
:102610000220002AB6D094F90330002BB2D0B521A5
:102620004A43121201FB03F308BF01221B1208BF29
:102630000123A270E370A5E7214A127802EB82021F
:10264000B0EB420FADDD01330B7001E0FF2BFAD18F
:102650003EB1FFF751FE002ECCBF0123FF235843AC
:1026600020713DB1FFF748FE002DCCBF0123FF23B1
:102670005843607194F90420002A92D094F90530EF
:10268000002B8ED0B5214A43121201FB03F308BF81
:1026900001221B1208BF01232271637181E700BF71
:1026A000180F0020140F00201F0F00208D0D002098
:1026B000160F0020200F0020910D00208C0D00200F
:1026C000900D002008B506220548002105F027F8E6
:1026D000044A00231370044A1370044A137008BD9F
:1026E000180F00201F0F0020200F00201E0F0020B9
:1026F00007B50023014601220DF107008DF80730D0
:1027000000F02AFA9DF8070003B05DF804FB07B556
:102710000023014602220DF10600ADF8063000F05C
:102720001BFABDF8060003B05DF804FB07B50422F0
:10273000014600230DEB0200019300F00DFA019811
:1027400003B05DF804FB07B501228DF807100146C0
:102750000DF1070000F035FA03B05DF804FB07B592
:102760000222ADF8061001460DF1060000F029FA2C
:1027700003B05DF804FB07B50422019101460DEB9F
:10278000020000F01EFA03B05DF804FBF8B5D31D9B
:1027900023F0070300AFADEB030D05461446684672
:1027A0000E4600F0D9F922466946284604F099FF02
:1027B00020B122463146284600F003FABD46F8BD56
:1027C00038B50C460546FFF793FFA04205D02146D9
:1027D0002846BDE83840FFF7B6BF38BD38B50C46CF
:1027E0000546FFF794FFA04205D021462846BDE8E4
:1027F0003840FFF7B4BF38BD38B50C460546FFF783
:1028000095FFA04205D021462846BDE83840FFF795
:10281000B2BF38BD10B500F083FA094C094800F08A
:1028200037FA094800F034FA204600F031FA074838
:1028300000F02EFA00F082FA054B1C6010BD00BFBC
:1028400000F0030800E0030800E8030800F80308AC
:10285000241F002038B520F00104A1B204F1006467
:1028600004F578344FF6FF722388934210D10A4A58
:102870008D5AED43ADB29D420CD000F051FA204686
:10288000294600F027FA044600F058FA204638BDE1
:102890000024FBE70524F9E7220F0020F8B5FFF735
:1028A000B9FF00F03DFA0B4E0B4C0C4F052536F8E6
:1028B000021B39B1C94389B2204600F00BFA052842
:1028C00018BF05460234BC42F1D100F037FA284661
:1028D000F8BD00BF220F002000E0030800F003084D
:1028E0001E4BF7B5C65A1E4F012E98BF1D4C3A68B5
:1028F00094BF02230423C3F1006394BF44EA463427
:10290000803803F5802392BFA4B280B24FF46044B4
:102910009A4204D903B0BDE8F040FFF7BFBF44EAD4
:102920005001019100F0FCF938680199831C3B606B
:1029300000F0D0F9B4F5604F054609D13868F1438D
:10294000831C89B23B6000F0C5F9052818BF054615
:1029500000F0F4F9284603B0F0BD00BF220F0020BC
:10296000241F00200080FFFF37B50E4D0E4B2A6854
:102970009A42044604D903B0BDE83040FFF78EBF49
:1029800000F0CEF9094B2868E15C41EA0421831C80
:1029900089B22B6000F09EF9019000F0CFF9019808
:1029A00003B030BD241F0020FFFF0308220F0020CA
:1029B0001F4B204A2048F0B51D4632F8021BC94380
:1029C000824223F8021BF8D11C4C4FF6FF7743F6E6
:1029D000FE761388BB4206D0180409D4190A6B543A
:1029E0000232A242F5D9164B4FF480501A60F0BD66
:1029F00003F4C041B1F5C04F0FD1901CA04215D8CF
:102A00005188C94389B279B106EA4303803302464B
:102A1000B3F5805FE4D2E952E2E75904E0D4C3F3AE
:102A2000403106EA4303F3E70246D9E70246DAE714
:102A3000220F002000E0030800F00308FFFF030856
:102A4000241F002008B5FFF7E5FEBDE80840FFF7AA
:102A5000AFBF0000B0F5805F10B5044614D20C4B38
:102A6000C25C8A4212D0C154FFF7F4FE68B97F2CD1
:102A700004D82046BDE81040FFF776BF24F00100DF
:102A8000BDE81040FFF72CBF072010BD0020FCE779
:102A9000220F0020B0F5805FF8B505460E4634D20F
:102AA00010F001040DD0C9B2FFF7D4FF0446681C32
:102AB000310A80B2FFF7CEFF052818BF0446204632
:102AC000F8BD134BC75AB942F9D0C152FFF7C2FE45
:102AD00004460028F3D17F2D12D8FBB2F2B2934204
:102AE0000CD02846FFF740FF0446360AB6EB172FF6
:102AF000E5D0681C80B2FFF737FFDDE70524F4E777
:102B00002846BDE8F840FFF7EBBE0724D7E700BF33
:102B1000220F0020B0F5805F3ABF024BC05CFF205F
:102B2000704700BF220F002040F6FE7398420AD87B
:102B3000064BC20741BF5A1C825CC05C40EA0220BF
:102B400058BFC05A70474FF6FF707047220F0020E1
:102B5000FFF72EBFFFF776BF2DE9F8430446154671
:102B60004AB1CB0707D588B2FFF7D4FF4A1C04F857
:102B7000010B013D114625F0010804F00109A61CD6
:102B80006F08884441450BD16FF0010202FB0755E5
:102B900025B188B2FFF7BEFF04F81700BDE8F8833F
:102BA00088B2FFF7C1FFB9F1000F04D126F8020C7B
:102BB00002310236E6E706F8020C000A06F8010CBC
:102BC000F6E7F8B506460D4614464AB1CB0707D5D9
:102BD0004F1CA8B216F8011BFFF73CFF013C3D4615
:102BE00000273A19012AA6EB07030FD863086FF0F4
:102BF000010224F0010002FB0344284484B116F8CA
:102C0000131080B2BDE8F840FFF724BF1A78597856
:102C1000E81B42EA012180B2FFF73CFF023FE0E7F8
:102C2000F8BD00000B4BDA68D0070CD4DA68510706
:102C30000BD4DA68D2060AD4D86800F00100C0F1DB
:102C40000500C0B270470120704702207047032082
:102C5000704700BF0020024073B50446FFF7E2FF53
:102C60000025FF2601280FD114B9062002B070BD3F
:102C700001950196019B1BB9FFF7D4FF013CF1E7D9
:102C8000019B013B0193F5E7002C08BF0620EDE70F
:102C900038B5054640F6FF70FFF7DEFF052815D171
:102CA0000B4C236943F0020323616561236943F000
:102CB0004003236140F6FF70FFF7CEFF06281EBFDA
:102CC000236923F0020323613423E36038BD00BF8E
:102CD00000200240104B00F178429A4270B5054640
:102CE0000E4616D81F20FFF7B7FF052810D10B4C52
:102CF000236943F0010323611F202E80FFF7ACFFFF
:102D000006281EBF236923F0010323613423E360F7
:102D100070BD0720FCE700BFFEFF07000020024057
:102D2000044B1A69120641BF034A5A6002F1883205
:102D30005A6070470020024023016745024A136928
:102D400043F08003136170470020024030B585B026
:102D500010F47F4F0190C0F30725C0F3074217D14D
:102D600009B1314B9A5C8DF80C208DF80D208DF84F
:102D70000E209DF80C30002063F307009DF80D3005
:102D800063F30F209DF80E3063F3174005B030BD9C
:102D90009DF8044071B3244B995C04EB4400FF237D
:102DA0004000B0FBF3F06FF05403434303EB4403E4
:102DB00003EB4303DBB215FB03F2C3F1FF036B43E9
:102DC00012121B12C5F1FF04C2F1FF02C3F1FF038F
:102DD0004C434A434B43C4F30724C2F30722C3F3D3
:102DE0000723C9B2062819D8DFE800F00608110F3A
:102DF0001418060091B2D0E70A4619468DF80C1057
:102E00008DF80D208DF80E40B3E70B461146224693
:102E10001C46F3E71A460B462146F9E70B462146C6
:102E200014461A46EAE700BF508A000884B0012120
:102E300004B0FFF78BBF012830B501D8C0B230BD58
:102E4000B0F5F75F9DBF42090832D2B2FF220124DC
:102E5000A3185910C3F34705C3F34F0313FB03F340
:102E60009BB2834205D96A1ED2B29442F0D9601E49
:102E7000E4E7FF2902D06C1CE4B2F6E70846DEE77F
:102E8000074B188800EB402200EB820000F55850F9
:102E9000193080B2188000EB1020C0B2704700BF1C
:102EA0009A0D002010F040031ABFC243D2B202466E
:102EB00010B502F00F0103B101310A4CC2F3011247
:102EC00004EB42035B7813FB01F114F8123003EBBF
:102ED0002113DBB2020644BF5B42DBB283F0800009
:102EE00010BD00BF388A000884B0C0F307230190EA
:102EF0002C31124810F81100E42110FB01F0C2EB54
:102F000010201C300028B8BF4042A3EBC00000B224
:102F100020EAE07010FB03F000128DF80500019B21
:102F20000020DAB262F30700C3F3072262F30F2036
:102F3000C3F3074363F3174004B07047000C00204D
:102F400084B0C0F3074301902C31124810F81100EF
:102F5000E42110FB01F0C2EB10201C300028B8BFA8
:102F60004042A3EBC00000B220EAE07010FB03F087
:102F700000128DF80600019B0020DAB262F3070010
:102F8000C3F3072262F30F20C3F3074363F3174031
:102F900004B07047000C002084B001908DF804202C
:102FA000019B0020DAB262F30700C3F3072262F349
:102FB0000F20C3F3074363F3174004B070470000CA
:102FC00084B02C310A4B019013F811309A1A8DF805
:102FD0000420019B0020DAB262F30700C3F307224A
:102FE00062F30F20C3F3074363F3174004B0704745
:102FF000000C002084B001900B4800EB4101002040
:1030000091F859309A1A8DF80420019BDAB262F3D4
:103010000700C3F3072262F30F20C3F3074363F3F0
:10302000174004B0704700BF000C002030B5134DAE
:1030300085B02C3105EB410301905B78A3F12004AE
:1030400064B2002CBCBFC3F120035CB215F8113090
:103050009A1A2244C0B210448DF80400019B00204B
:10306000DAB262F30700C3F3072262F30F20C3F35F
:10307000074363F3174005B030BD00BF000C0020CC
:1030800084B003EB43039DF81020019002EB53033F
:103090008DF80430019B0020DAB262F30700C3F31D
:1030A000072262F30F20C3F3074363F3174004B012
:1030B00070471FB5019048B20028BCBF494248B2D2
:1030C0005243C0F1380010FB002080B21C46FFF7CD
:1030D000B2FE00EB400004448DF80440019B002048
:1030E000DAB262F30700C3F3072262F30F20C3F3DF
:1030F000074363F3174004B010BD00001FB5124C26
:1031000001902C3304EB430014F813304078703BEB
:103110005943203802FB0012002A9DF80410B8BF62
:103120007F3201EBE2128DF80420019B0020DAB21D
:1031300062F30700C3F3072262F30F20C3F30743D0
:1031400063F3174004B010BD000C00201FB5124CF3
:1031500001902C3304EB430014F813304078703B9B
:103160005943203802FB0012002A9DF80410B8BF12
:103170003F3201EBA2128DF80420019B0020DAB24D
:1031800062F30700C3F3072262F30F20C3F3074380
:1031900063F3174004B010BD000C002030B585B0BB
:1031A0002C33164D019005EB430415F81350647849
:1031B000A5F170035BB2002BBCBFC5F170035BB21D
:1031C000203C5443C3F1380301FB034212EB42029B
:1031D000C0B248BF7F3200EBE2128DF80420019BA1
:1031E0000020DAB262F30700C3F3072262F30F2074
:1031F000C3F3074363F3174005B030BD000C002054
:1032000030B585B00D460190C4B21046FFF74AFEB6
:103210002C35124B13F815201044C2B2A2F18003D2
:103220005BB2002BBCBFC2F1800253B25B0003F063
:10323000FE0303EB430304EB93138DF80430019B6F
:103240000020DAB262F30700C3F3072262F30F2013
:10325000C3F3074363F3174005B030BD000C0020F3
:1032600084B0114B01902C31C0B213F811108B1A9D
:103270005BB2002BBCBF521A53B2DBB203EB430369
:1032800000EB53138DF80430019B0020DAB262F397
:103290000700C3F3072262F30F20C3F3074363F36E
:1032A000174004B0704700BF000C0020024B1A7892
:1032B00010431870704700BF281F002010B5044647
:1032C00020B90029ACBF0020802010BD80EAE07248
:1032D000A2EBE07213B20029A6BFCB1A5B015B1A06
:1032E00001FA82F2B5BF520193FBF2F392FBF3F3C2
:1032F000C3F12003B8BFC3F160035BB2D8B2002CA6
:10330000BCBF4042C0B2E0E730B585B0C0F307258E
:10331000EB1A01901046DCB2FFF7D0FFC0EB801330
:1033200000EB83002044C0B210FB05F000128DF8C2
:103330000500019B0020DAB262F30700C3F3072205
:1033400062F30F20C3F3074363F3174005B030BDAA
:1033500030B585B0C0F30745EB1A01901046DCB2DA
:10336000FFF7ACFFC0EB801300EB83002044C0B23A
:1033700010FB05F000128DF80600019B0020DAB268
:1033800062F30700C3F3072262F30F20C3F307437E
:1033900063F3174005B030BD30B585B0C0F30725E5
:1033A0009DF82040019010461C1BFFF787FF2C441E
:1033B000E4B2201AC0B210FB05F000128DF805002F
:1033C000019B0020DAB262F30700C3F3072262F325
:1033D0000F20C3F3074363F3174005B030BD30B58A
:1033E00085B0C0F307459DF82040019010461C1B96
:1033F000FFF764FF2C44E4B2201AC0B210FB05F0C2
:1034000000128DF80600019B0020DAB262F307007B
:10341000C3F3072262F30F20C3F3074363F317409C
:1034200005B030BD1FB5019010461C46FFF746FFA2
:1034300020448DF80400019B0020DAB262F30700FB
:10344000C3F3072262F30F20C3F3074363F317406C
:1034500004B010BD1FB59DF8184001901B1B10460D
:10346000DCB2FFF72BFF201A8DF80400019B00202F
:10347000DAB262F30700C3F3072262F30F20C3F34B
:10348000074363F3174004B010BD000008B50822DD
:1034900003481C21FFF77AF9024B00221A7008BD7D
:1034A00020220020281F002084B004B0FFF7BEBCFB
:1034B00010B5084C08492046352300F8013B03228B
:1034C00004F01FF94FF67F73A380BDE81040FFF7AB
:1034D000DDBF00BF20220020A0860008014BDB6872
:1034E000184700BF408A000810B4034C6468A44623
:1034F0005DF8044B604700BF408A00082DE9F04F9B
:10350000354BDFF8DC9004781D8899F8043004EB23
:1035100084045B08A40089B0E4B25D43C5F30723CB
:1035200004F11406F6B202932C4B0391632EB346BA
:10353000804628BF4FF0630B03EB440703F58F7AF7
:10354000E3B29B4506D8622E8CBF0020012009B053
:10355000BDE8F08F14F80A2098F801301A4238D0EC
:1035600097F8593097F85800203B9AB2703813FBFF
:1035700003F381B200FB003080B205910492FFF7A3
:103580005AFC029A99F801C099F803E00599009253
:10359000034699F80200049A039D4CEA002012B2F7
:1035A00009B240EA0E40A847C0F307238DF81C007B
:1035B000C0F307408DF81D308DF81E000798FFF707
:1035C00073FFC0F30743C2B2C0F307212046FFF7E1
:1035D0008BFF02370134B3E728220020000C0020C3
:1035E000202200200149FFF789BF00BF993300085E
:1035F0000149FFF783BF00BFDF3300080149FFF730
:103600007DBF00BF813000080149FFF777BF00BFD1
:10361000553400082DE9F04F2DED028BDFF8C490F2
:1036200004782E4B99F804501B8804EB8404A40002
:103630006D08E4B25D43C5F3072304F11406F6B246
:1036400008EE103A85B0264B0191632EB3468046B2
:1036500028BF4FF0630B03EB440703F58F7AE3B207
:103660009B4508D8622E8CBF0020012005B0BDEC20
:10367000028BBDE8F08F14F80A2098F801301A4246
:1036800028D099F8023099F8010099F803C097F80A
:10369000592097F85810019D40EA0320203A7039CC
:1036A00018EE103A40EA0C40A847C0F307238DF803
:1036B0000C00C0F307408DF80D308DF80E00039814
:1036C000FFF7F2FEC0F30743C2B2C0F30721204662
:1036D000FFF70AFF02370134C1E700BF28220020AC
:1036E000000C0020202200200149FFF793BF00BFFB
:1036F000093300080149FFF78DBF00BF51330008AF
:103700000149FFF787BF00BFB33000080149FFF749
:1037100081BF00BF253400082DE9F74F0478DFF89A
:10372000A490274A99F80450DFF89CB004EB840475
:10373000A400E4B2AB0804F1140815885FFA88F815
:10374000B8F1630F03FB0555C24606460F4628BF76
:103750004FF0630AC5F30725E1B28A4507D8B8F1EF
:10376000620F8CBF0020012003B0BDE8F08F14F879
:103770000B2073781A4220D099F8020099F8013092
:1037800043EA002399F803002A4643EA0040B84779
:10379000C0F307238DF80400C0F307408DF805300F
:1037A0008DF806000198FFF77FFEC0F30743C2B211
:1037B000C0F307212046FFF797FE0134CCE700BF96
:1037C00028220020202200201E0D00200149FFF7A2
:1037D000A3BF00BFE92E00080149FFF79DBF00BF4E
:1037E000412F00080149FFF797BF00BF992F00083C
:1037F0000149FFF791BF00BFC12F00080149FFF742
:103800008BBF00BFF52F00080149FFF785BF00BF40
:103810002D3000080149FFF77FBF00BF01320008CB
:103820000149FFF779BF00BF613200082DE9F04F71
:103830002DED028BDFF8CCA00478304B9AF80450C1
:103840001B8804EB8404A400AD085D43E4B2C5F317
:10385000072504F114085FFA88F8814605F1400055
:10386000B8F1630F85B0C0B20E46C34628BF4FF013
:10387000630BFFF717FB803843B2284608EE103A77
:10388000FFF710FB803847B2E3B29B4509D8B8F187
:10389000620F8CBF0020012005B0BDEC028BBDE89B
:1038A000F08F174AA15C99F80120114223D09AF8B1
:1038B00002209AF801009AF803C0009540EA02201D
:1038C00018EE101A3A4640EA0C40B047C0F30723FE
:1038D0008DF80C00C0F307408DF80D308DF80E0008
:1038E0000398FFF7E1FDC0F30743C2B2C0F307211D
:1038F0002046FFF7F9FD0134C6E700BF282200206B
:103900001E0D0020202200200149FFF78FBF00BFBD
:10391000FD3000080149FFF789BF00BF4D310008A5
:103920000149FFF783BF00BF9D3100082DE9F34136
:1039300004781E4ADFF87880537804EB8404054647
:10394000A4009078E4B243EA002304F11406D0788E
:10395000F6B2632E43EA0040374628BF6327FFF7DD
:10396000A3FDC0F307238DF80530C0F307438DF89E
:1039700004008DF80630E3B29F4206D8622E8CBF59
:103980000020012002B0BDE8F08114F808206B7817
:103990001A4208D09DF806309DF804209DF80510C5
:1039A0002046FFF7A1FD0134E5E700BF20220020FB
:1039B0001E0D00202DE9F0430478DFF8B89004EBE9
:1039C0008404A400E4B204F1140585B0EDB2632DC3
:1039D0004FF0030209F10101064601A82F4628BF56
:1039E000632703F08EFE019899F80180FFF75CFDD4
:1039F000C0F307238DF8093099F804308DF80800DA
:103A000098448DF80480C0F307408DF80A000198AF
:103A1000DFF86480FFF748FDC0F307238DF80D3011
:103A2000C0F307438DF80C008DF80E30E3B29F42CF
:103A300006D8622D8CBF0020012005B0BDE8F083C0
:103A400014F808307278134211D0DB0743BF9DF899
:103A50000E309DF80C209DF80D109DF80A305CBFCB
:103A60009DF808209DF809102046FFF73DFD013420
:103A7000DCE700BF202200201E0D00202DE9F74FBB
:103A80000478DFF88480DFF8849004EB8404A400D9
:103A9000E4B204F11405EDB2632D06464FF00302C3
:103AA00008F101016846AA4628BF4FF0630A03F0F7
:103AB00028FE98F80470A9F1C50BBF08E3B29A4537
:103AC00006D8622D8CBF0020012003B0BDE8F08F26
:103AD00014F8092073781A4213D01BF814301A090D
:103AE00098F8013002FB07338DF800300098FFF79B
:103AF000DBFCC0F30743C2B2C0F307212046FFF747
:103B0000F3FC0134DAE700BF202200201E0D002064
:103B10002DE9F74F0478DFF88480DFF8849004EB18
:103B20008404A400E4B204F11405EDB2632D06464A
:103B30004FF0030208F101016846AA4628BF4FF082
:103B4000630A03F0DEFD98F80470A9F1C60BBF0804
:103B5000E3B29A4506D8622D8CBF0020012003B045
:103B6000BDE8F08F14F8092073781A4214D01BF8BE
:103B7000143007FB03F298F8013003EB52138DF871
:103B800000300098FFF790FCC0F30743C2B2C0F3C7
:103B900007212046FFF7A8FC0134D9E720220020A6
:103BA0001E0D00202DE9F7430478DFF8B49004EBF4
:103BB0008404A400E4B204F11405EDB2632D4FF0C7
:103BC000030209F10101064668462F4628BF632714
:103BD00003F097FD214B99F80380188899F8043079
:103BE000DB085843C0F30720FFF75CF9A0F180031E
:103BF0005BB2002BBCBFC0F1800043B25B00DBB204
:103C000013FB08F31B128DF802300098DFF8548084
:103C1000FFF74AFCC0F307238DF80400C0F3074008
:103C20008DF805308DF80600E3B29F4206D8622D6C
:103C30008CBF0020012003B0BDE8F08314F80820F9
:103C400073781A4208D09DF806309DF804209DF83C
:103C500005102046FFF748FC0134E5E72822002044
:103C6000202200201E0D002037B51A4B03440546C4
:103C700093F81E3119422AD0174B5C789A788DF848
:103C80000120DA788DF8022003F052FD4FF4B4726F
:103C900004F1B403B3FBF2F102FB11331B1B48BF69
:103CA000033300F0030043F38F0303FB00438DF85D
:103CB00000300098FFF7F8FBC0F30743C2B2C0F32F
:103CC0000721284603B0BDE83040FFF70DBC03B024
:103CD00030BD00BF000C002020220020F8B58678FF
:103CE0000546EEB91B4B1C4A1B7912881033FF2B7B
:103CF00028BFFF235343C3F30F230A22B3FBF2F180
:103D000002FB11339BB24BB903F012FD63236978B8
:103D100090FBF3F202FB1300FFF7A6FF3046F8BD5D
:103D2000047804EB8404A400E4B204F11406F6B2AF
:103D3000632E374628BF6327A74204DC622E8CBF60
:103D400000260126EAE720466978FFF78DFF013457
:103D5000F2E700BF202200202822002013B5124BDA
:103D60000344044693F81E3119421BD003F0E0FCD3
:103D70008DF8000003F0DCFC0C4B60F07F00DB787A
:103D80008DF802308DF801000098FFF78DFBC0F32D
:103D90000743C2B2C0F30721204602B0BDE810407D
:103DA000FFF7A2BB02B010BD000C002020220020B3
:103DB000F8B586780546F6B91B4B1C4A1B79128864
:103DC0001033FF2B28BFFF235343C3F30F230522D8
:103DD000B3FBF2F202EB82029B1A9BB24BB903F0E7
:103DE000A7FC6323697890FBF3F202FB1300FFF753
:103DF000B5FF3046F8BD047804EB8404A400E4B2B7
:103E000004F11406F6B2632E374628BF6327A74293
:103E100004DC622E8CBF00260126EAE72046697882
:103E2000FFF79CFF0134F2E7202200202822002027
:103E30002DE9F7430478DFF8B89004EB8404A4007C
:103E4000E4B204F11405EDB2632D4FF0030209F161
:103E50000101064668462F4628BF632703F051FC40
:103E6000224B99F80180188899F80430DB085843F0
:103E7000C0F30720FFF716F8A0F180035BB2002B18
:103E8000BCBFC0F1800043B25B0003F0FE0303EB54
:103E9000430308EB93138DF800300098DFF854804B
:103EA000FEF7C4FFC0F307238DF80400C0F30740FA
:103EB0008DF805308DF80600E3B29F4206D8622DDA
:103EC0008CBF0020012003B0BDE8F08314F8082067
:103ED00073781A4208D09DF806309DF804209DF8AA
:103EE00005102046FFF700FB0134E5E728220020FB
:103EF000202200201E0D0020014B9B68184700BFA8
:103F0000408A0008FDF7F6BD7047704708B5FFF717
:103F1000FBFFFFF7FAFF08BD7047704707B5017850
:103F200001EB81018900C9B26329A1F11400C0B27B
:103F300028BF6321CDE90001FFF7EEFFDDE90001B5
:103F4000FFF7EBFF03B05DF804FB00002DE9F04F35
:103F500087B001F0FDF99E4C9E4B1860237813F05A
:103F6000030218BF9B08019218BF01939A4B1B785C
:103F7000032B00F2A682DFE813F004000D00A70275
:103F8000B302964B00221A70954B18600123924A97
:103F9000137096E2934B019A1B78934237D1924A61
:103FA0002378127803F003039B1A18BF01238B4E6A
:103FB0007278B37063799A4205D000221146104698
:103FC0007370FFF799FF019B1E2B29D8DFE813F0D0
:103FD00021002A0048004C005000540058005C00AA
:103FE0006000640068006C007000740078007C0061
:103FF0008000840088008C009000940098009C0051
:10400000A000A400A800AC00B0001201D20101235E
:10401000CDE7B67856B1002211461046FFF76CFF87
:10402000002603E06D48FFF781FC06466B4B1A78CB
:1040300001321A70002E40F0408267499B780222BC
:104040000A70002B40F03982019B002B00F0468261
:10405000FFF75CFF614807B0BDE8F04FFFF75EBFB8
:104060005E48FFF7A7FCE0E75C48FFF707FDDCE7E9
:104070005A48FFF74DFDD8E75848FFF793FDD4E7BE
:104080005648FFF7A3FBD0E75448FFF7A5FBCCE762
:104090005248FFF729FBC8E75048FFF72BFBC4E75E
:1040A0004E48FFF79FFAC0E74C48FFF7A1FABCE77C
:1040B0004A48FFF797FBB8E74848FFF799FBB4E792
:1040C0004648FFF79BFBB0E74448FFF79DFBACE792
:1040D0004248FFF793FAA8E74048FFF711FBA4E72F
:1040E0003E48FFF713FBA0E73C48FFF78DFA9CE73B
:1040F0003A48FFF709FC98E73848FFF70BFC94E7CC
:104100003648FFF70DFC90E73448FFF7E7FD8CE7F2
:104110003248FFF74DFE88E73048FFF789FE84E715
:104120002E48FFF777FB80E72C48FFF779FB7CE709
:104130002E4FDFF8AC803A68D8F800309A423FF64C
:104140006FAFFEF79DFE0546622D20D8FEF798FE64
:10415000274B2B4493F81E2173781A4200F0AB8151
:10416000820717D500231A4619462846FFF7BCF9DF
:1041700023791033FF2B28BFFF234FF4FA721B095A
:10418000B2FBF3F3D8F8002013443B6048E7633DEB
:10419000EDB2D9E7FEF774FE8DF81000FEF770FE61
:1041A0004008E3788DF812307F308DF811000498C4
:1041B000FFF77AF9C0F30721C0F307438DF8151014
:1041C0008DF816308DF81400DBB2C2B2C9B2CCE75C
:1041D00020220020AC200020990D0020940D00200A
:1041E00028220020970D0020980D0020B8200020E4
:1041F000000C0020DFF828A3DFF80CB3DAF8002069
:10420000DBF800309A423FF60BAFB378BB4DEBB909
:10421000307800EB80008000C0B200F114095FFA32
:1042200089F94F46632F00EB400828BF6327A84455
:10423000C3B29F4241D8B9F1620F94BF0126002654
:104240007FF6F4AE4FF00008013F53E00022114624
:104250001046FFF751FE0027A846B946FEF710FEAC
:1042600083070BD588F8009088F8019088F80290B1
:104270000137632F08F10308F0D1C9E7FEF700FE0C
:104280008DF81400FEF7FCFD4008E3788DF8163039
:104290007F3007EB47028DF81500AB1805980392A5
:1042A0000293FEF7C3FD039A029BA854C0F30722B2
:1042B000C0F307405A709870DAE7914BC25C73788C
:1042C0001A4209D098F8023098F8002098F80110A6
:1042D0000290FFF709F9029808F103080130A7E7F7
:1042E00001EB4100013101EB410103222944284443
:1042F00003F007FA5FFA88F1B94208F10108EFDB31
:10430000FEF7BEFD10F0020F4FEA470115D00F4433
:104310000023EA19EB555370937023791033FF2B68
:1043200028BFFF2340F6B8321B09B2FBF3F3DBF8DA
:1043300000201344CAF8003078E6FEF7A1FD8DF89E
:104340001400FEF79DFD4008E3788DF816307F30AD
:104350008DF8150005980F44FEF768FD05EB07087A
:10436000E855C0F30723C0F3074088F8013088F808
:104370000200D2E7634B1A68634B1B689A423FF610
:104380004FAEB37823B1002211461046FFF7B4FDBB
:10439000A07863785D4EDFF88C9143EA0023E078E3
:1043A00043EA0040FFF780F8C0F30727C0F307484F
:1043B0008DF815708DF816808DF81400C5B2FFB217
:1043C0005FFA88F8CDF80890B3464FF0000A029AD9
:1043D0001BF8013B12F8010B0292002B5FD0434601
:1043E0002A4639460AF1010A5FFA8AFAFFF77CF891
:1043F0009BF800300BF8013CBAF1030FE7D109F14B
:104400000703029306F1070B4FF0070A029A1BF805
:10441000013912F801090292002B43D043462A4683
:1044200039460AF1FF3A5FFA8AFAFFF75DF89BF81E
:1044300000308BF80130BAF1040FE7D1337999F8E5
:10444000040093B343462A463946FFF74DF8F37804
:1044500099F8030063B343462A463946FFF744F808
:10446000FEF70EFD10F0030F0CBF01230023F370C5
:104470003371274B0836B34209F10809A2D12379D9
:104480001033FF2B28BFFF2340F6B8321B09B2FBC5
:10449000F3F31D4A126813441A4A1360C0E51A4622
:1044A00019469FE71A461946BBE71A461946CCE754
:1044B0001A461946D2E70126B8E5019B002B7FF486
:1044C000C7AD07B0BDE8F08F124B019A1A70237880
:1044D000114AC3F301031370FFF700F8032356E5F5
:1044E0000E4B1B780BB1FEF7D1FF074B186800F09D
:1044F00071FF0F28E5D9002349E500BF811F002087
:104500001E0D0020B020002028220020291F00209E
:10451000811F0020970D0020980D0020281F0020EB
:10452000B4200020000C00200E4B10B51B689847EB
:10453000FDF726FA18B9FDF7A5FAFEF7B9FF0A4C00
:1045400008221C212046FEF707FB084B00221A70A8
:10455000237813F0FC0F03D1BDE81040FEF7A8BF8D
:1045600010BD00BF408A000820220020281F002024
:1045700070470000044A137883F001031370034B63
:1045800000221A70FEF792BE20220020990D002012
:104590000120FFF7EFBF000010B40C4C2378024657
:1045A000084699070FD052B9012262F3870323709E
:1045B000074B00221A705DF8044BFEF777BE1E2AE7
:1045C00088BF1E22F1E75DF8044B704720220020CF
:1045D000990D00200121FFF7DFBF0000054B1B787C
:1045E0009B0801331F2B014634BF18460120FFF7FB
:1045F000D3BF00BF202200200120FFF7EFBF000043
:10460000064B1B78C3F38503013B13F0FF03014600
:1046100014BF18461E20FFF7BFBF00BF2022002096
:104620000120FFF7EDBF000030B4074C05461846E7
:1046300023789B0705D06570A170E27030BCFEF74F
:1046400035BE30BC704700BF20220020034903461E
:104650004878CA7889780830FFF7E6BF2022002022
:104660000120FFF7F3BF0000054910B44C78CA7869
:104670008978083C0346A0B25DF8044BFFF7D4BF2D
:10468000202200200120FFF7EFBF000010B4074CEC
:10469000A178E2781031FF2928BFFF210346C9B273
:1046A00060785DF8044BFFF7BFBF00BF20220020F9
:1046B0000120FFF7EBBF000010B4064CA178E278B0
:1046C000103921EAE1710346C9B260785DF8044B04
:1046D000FFF7AABF202200200120FFF7EDBF000056
:1046E00010B4074CE278A1781032FF2A28BFFF22CD
:1046F0000346D2B260785DF8044BFFF795BF00BF68
:10470000202200200120FFF7EBBF000010B4064C70
:10471000E278A178103A22EAE2720346D2B26078D7
:104720005DF8044BFFF780BF202200200120FFF737
:10473000EDBF0000044A13791033FF2B28BFFF237D
:104740001371FEF7B3BD00BF202200200120FFF748
:10475000F1BF0000034A1379103B23EAE37313719E
:10476000FEF7A4BD202200200120FFF7F3BF0000C8
:1047700008B50548002100F0ABF8BDE80840034843
:10478000012100F0A5B800BF0D0400480E04004848
:1047900008B500F06BFB0549054800F033F8BDE8AB
:1047A00008400249034800F02DB800BF0D0800483A
:1047B0000D0400480E040048F8B5174600220D46C7
:1047C0001E461146042300F08BFB044620B900F07E
:1047D00005FC00242046F8BD094865F05F0505701A
:1047E0004770022100F0F0FB0028F0D19DF818106E
:1047F000304600F0E9FB0028E9D100F0EFFBE9E7E3
:10480000BE200020F0B521F00F07012501F00F01B7
:1048100085B005FA01F4214606462A463846A4B278
:1048200002F01DFA3C830DF10F03962700952A46EE
:10483000002130468DF80F70FFF7BEFF0024E2B272
:1048400000950DF10F030421304601348DF80F70EF
:10485000FFF7B2FFD82CF2D10022B1238DF80F3030
:1048600000950DF10F0311463046FFF7A5FF05B087
:10487000F0BD0000F0B50B4C04EB800514F82040AF
:104880000948AF78EE786D7804F003044FF0D80C47
:104890000CFB04004155C2558355044B01221A55A7
:1048A000F0BD00BFA38600082C220020BC20002001
:1048B000F8B505460E461746002420463B463246CC
:1048C00029460134FFF7D6FF632CF6D1F8BD00006E
:1048D00037B5084D6B5C0C4643B1074AD8230093AB
:1048E00001FB032300220221FFF766FF00232B5563
:1048F00003B030BDBC2000202C22002000B11047A6
:104900000847000038B58D7804460DBBFCF732FF30
:1049100045F6D6439C4200F0220014D845F6C24327
:104920009C4244D9A4F5B944443C122C12D8DFE887
:1049300004F014191C1F2225282B2E3134383A3C40
:104940000F0F0F0F0F0045F65E539C4218BF012555
:10495000284638BDFFF71CFEFAE7164A1649FFF74E
:10496000CDFFF5E7144A1349F9E7144A1449F6E76D
:10497000134A1249F3E7134A1349F0E7124A11495F
:10498000EDE7124A1249EAE7114A1049E7E7114AEE
:104990001149E4E7104A0F49E1E70120FFF71AFE49
:1049A000D6E70520FAE70D20F8E71220F6E7012503
:1049B000CEE700BF21460008F945000885460008FB
:1049C00061460008D9460008B14600082D47000896
:1049D00005470008694700084D47000838B50546F7
:1049E0008878002800F0F68045F662539D4208D092
:1049F00020D845F615439D4216D845F601439D4201
:104A000017D9FCF7CDFF744C45F615439D42208025
:104A100026D845F601439D4211D82088FCF7CCFFEB
:104A2000FCF7A6FA002004E0A5F5B9437B3B082B70
:104A3000E7D938BD45F6A6539D42FAD1E1E7A5F581
:104A4000B845033D122D2FD8DFE805F033373B483A
:104A50004C50545A666A6E727E82868A90AC980078
:104A600045F603539D420ED845F6FA439D42D4D9EC
:104A7000A5F5B9457C3D072D27D8DFE805F02B5D6E
:104A800061477B8A9DA145F662539D4200F09A8062
:104A900045F6A6539D42C0D12378C3F3000282F0AD
:104AA000010262F3000302E0237843F00103237064
:104AB000B3E7237843F00203F9E7237843F00403D4
:104AC000F5E7237843F00803F1E7637843F0010347
:104AD0006370A2E7637843F00203F9E7237843F0B9
:104AE0001003E4E7237843F02003E0E7237843F062
:104AF0004003DCE7FCF73CFA237843F08003D6E779
:104B0000237823F00C0343F00C03D0E7637823F001
:104B1000030343F00303DBE723786FF30003C6E7E7
:104B200023786FF34103C2E723786FF38203BEE774
:104B300023786FF3C303BAE763786FF30003C7E723
:104B400063786FF34103C3E723786FF30413AEE791
:104B500023786FF34513AAE723786FF38613A6E74C
:104B6000FCF706FA23786FF3C713A0E7237823F046
:104B70000C039CE7637823F00303A9E72378C3F3CE
:104B8000800282F00102D2B262F3820362F3C303B5
:104B90008DE76378DA4302F0010262F3000362F307
:104BA000410395E7FCF7E4F92378C3F3C01282F0E0
:104BB000010262F3C7137AE70120FCF765FF2CE7D7
:104BC0000020FAE72378C3F3001282F0010262F3B7
:104BD00004136CE701202CE7082200200A2001F0D2
:104BE000EEB9000010B50D4C20224FF400412046D4
:104BF00002F035F820224FF48041204602F02FF8D1
:104C0000FFF7ECFF226923695B0BC2F3C03203F0AC
:104C100002031343024A137010BD00BF000800488E
:104C2000C12000201E4B1A691B6910B55B0BC2F333
:104C3000C03203F0020313431A4A1B4C117843EAB3
:104C40008103DBB21370194A03F00F03D35C22789F
:104C500013445BB2032B237020DD154A1378002127
:104C6000013313700846FBF71BFD012094F9003057
:104C7000033308DA0E4A1378013B13700121002038
:104C8000FBF70EFD012094F900305A4202F00302B6
:104C900003F0030358BF5342237010BD0020E5E723
:104CA00000080048C1200020C0200020508B0008D0
:104CB000C220002045F61643984210B50C461BD181
:104CC000FCF758FDA2780D4B72B100F0AA00002845
:104CD00015BF01220022352029201A70FCF71AFD89
:104CE000FCF7A4FD002010BD1B78002B14BF35205D
:104CF0002920FCF717FDF3E70120F4E7C32000208B
:104D0000F8B5144682789DF818701D46284B92B16C
:104D10001C7000F053FB274B188004F12003DBB21A
:104D2000072B44D804F007040120A040C0B2BDE81E
:104D3000F840FBF7DABE1E78A6422ED11D4B18882C
:104D400000F041FBC72828D8AE4205F1200415D059
:104D500006F12003DBB2072B06D806F00706012078
:104D6000B040C0B2FBF7CAFEE3B2072B06D805F08D
:104D7000070301209840C0B2FBF7B7FE3846E4B203
:104D8000FBF7ABFE072C12D805F007050120A84061
:104D9000BDE8F840C0B2FBF7B1BE04F12003DBB2BE
:104DA000072B04D804F007040120A040F0E7F8BD69
:104DB000C4200020C620002013B545F6F743044662
:104DC0009C4208460FD845F6F3439C4212D845F65C
:104DD000D9439C421DD045F6DA439C423ED045F66D
:104DE000D8439C420FD0807800283BD01E4B002235
:104DF0001A701CE0A4F5B944753C022C0ED8DFE80B
:104E000004F0181F260026230093E1231A462146AA
:104E10000AE027230093E523E522F8E72623009301
:104E2000E022E12345F6F441FFF76AFF002002B0DB
:104E300010BD27230093E422E52345F6F541F3E76F
:104E400026230093E222E12345F6F641ECE72723EF
:104E50000093E622E52345F6F741E5E72823009392
:104E60000123D9E70120E2E7C42000201B4B07B54E
:104E70001A787ABB012119704FF0904020210192DD
:104E800001F0EDFE019A40214FF0904001F0E7FE65
:104E9000019A80214FF0904001F0E1FE4FF47A70CA
:104EA00001F08DF840F29A2220214FF0904001F05D
:104EB000D6FE40F29A2240214FF0904001F0CFFE02
:104EC00040F29A2280214FF0904003B05DF804EB4D
:104ED00001F0C5BE03B05DF804FB00BFC820002090
:104EE00038B5364D2C68013465D1441C63D002249A
:104EF0009C422FD3A31EFE2B5DD8314B69BB022AE7
:104F000019822CD0032A2ED0012A03D11A8A42F00A
:104F100001021A82202C42D029D8082C37D0102C1C
:104F200039D0042C2ED0286000F00F01012420F08D
:104F30000F05D960224604FA01F128469D6001F070
:104F40008EFE1F491F4801F0F5F81E4801F00EF9CA
:104F5000204638BD6400A4B2CAE78021CFE71A8A90
:104F600042F00202D5E71A8A42F00302D1E7802C10
:104F700019D0B4F5807F1AD0402CD4D11A8A42F0CF
:104F8000280202E01A8A42F008021A82CBE71A8A43
:104F900042F01002F9E71A8A42F01802F5E71A8A7D
:104FA00042F02002F1E71A8A42F03002EDE71A8A55
:104FB00042F03802E9E70020CBE700BF9C0D00205B
:104FC000CC2000208425002008B50246024801F0CC
:104FD000E9F8002008BD00BF8425002010B5074C6B
:104FE0002368013308D0064801F0CEF8044801F0E8
:104FF000AFF84FF0FF33236010BD00BF9C0D0020C1
:1050000084250020014B1860704700BFE02000207D
:10501000024B186808B1036818477047E020002069
:10502000084B1B686BB1084A127842B1074A92F9E3
:105030000020002ABFBF02784270062202705B681F
:1050400018477047E0200020A00D00200822002013
:10505000034A12681AB10221017093681847704719
:10506000E0200020054A1188814205D0044B1080C1
:105070001B680BB1DB681847704700BFE6200020B3
:10508000E0200020054A1188814205D0044B1080A1
:105090001B680BB11B691847704700BFE420002054
:1050A000E02000200C4B1B78821C63B10B4B93F962
:1050B0000030002BACBF06231E230020013BDBB2D7
:1050C000FF2B02D170470623F7E712F8011B0029D6
:1050D000F4D00130C0B2F1E7A00D0020082200207A
:1050E000F9B1124B1B78A3B1114B93F90030002B8F
:1050F0000FDAEF294FEAD10213D81044012301F04F
:10510000070103FA01F18378194214BF012000203E
:105110007047831C083013F8012B8A4203D0834266
:10512000F9D1002070470120704700BFA00D00207A
:105130000822002030B54FF0FF32841C002314F801
:10514000015B8D420ED0B2F1FF3F02D1002D08BFAE
:105150001A460133DDB2062D5BB2F0D1531C01D0EB
:105160001044817030BD10B5831C0022083013F844
:10517000014B8C4208BF03F8012C8342F7D110BDCC
:10518000EF294FEAD10308D8184401F007010123A1
:1051900003FA01F18378194381707047EF294FEAD0
:1051A000D10308D8184401F0070101238B4081780E
:1051B00021EA03018170704710B40A4C2478034639
:1051C0000A4644B1084C94F90040002C03DA5DF81B
:1051D000044BFFF7D5BF5DF8044B11461846FFF7A7
:1051E000A9BF00BFA00D00200822002010B40A4C67
:1051F000247803460A4644B1084C94F90040002C38
:1052000003DA5DF8044BFFF7C9BF5DF8044B1146A4
:105210001846FFF7A8BF00BFA00D002008220020FD
:10522000074B1B78023043B1064B93F90030002B3B
:1052300003DA1E22002102F072BA0622FAE700BF4A
:10524000A00D002008220020704708B5FFF7FCFFE2
:1052500008BD000008B50028034B14BF0220012040
:105260001870FFF7F2FF08BDE820002008B5034BD7
:1052700003201870FFF7E9FF08BD00BFE8200020F9
:10528000FFF7E8BF08B5034B01201870FFF7DDFFFB
:1052900008BD00BFE8200020FFF7F4BF704770474B
:1052A000704708B5FFF7FCFF08BD704708B5FFF76A
:1052B000FCFF08BD10B5FFF7F1FFFCF773FFFFF728
:1052C000EEFF0024E0B2FCF7B1FE18B901340B2C5C
:1052D000F8D110BD0120FCE708B500F0F7FEBDE8ED
:1052E000084000F06FBC08B5FBF79AFABDE808402B
:1052F00040F2A46000F063BE08B5FCF751FAFCF779
:1053000065FAFCF717FAFDF7DDF90020FFF7AAFEB2
:105310000020FFF7B7FEBDE80840FBF78DBA00009C
:1053200008B5202383F3118800F0F2FE044B054AF0
:10533000186000231360044A136083F3118808BDCA
:10534000F4200020EC200020F0200020FFF7E8BF30
:1053500070B5202383F31188124D00F0D9FE124955
:105360002B680A68C41AA242104A0AD9A3F58333EB
:10537000E03B10682B600E4B04F583340344E034AB
:1053800013600C601668002181F3118809480A4AED
:105390004FF47A750023E4FB0501FAF7AFFF3044C0
:1053A00070BD00BFF4200020EC200020F020002081
:1053B00088598F029F860100A086010008B5FFF77B
:1053C000C7FF80B208BD10B50446FFF7C1FF001B40
:1053D00080B210BD10B50446FFF7BAFF001B10BD28
:1053E000074B084A1A60BFF34F8F0749074BCA683B
:1053F00002F4E0621343CB60BFF34F8F00BFFDE7C1
:10540000FC9F0020EFBEADDE00ED00E00400FA05D9
:105410000B4A08B552F8041C0A4B99420ED10023DE
:1054200042F8043C83F31488074BD3F8002882F336
:10543000088862B6D3F804389847FEE708BD00BF75
:1054400000A00020EFBEADDE00D0FF1F202383F3BD
:105450001188002383F311887047704738B5094CD1
:10546000104622460D46002142F8041F40EA05205E
:10547000194600F007FB20606068002818BF20462E
:1054800038BD00BFF820002090F87A10074A0229A2
:10549000137807D1012B01D0062B05D1044B52788C
:1054A0001A707047024A1370704700BF54210020E1
:1054B0002C21002038B505460C46202383F31188A3
:1054C0000F4B1A78042A03D0002383F3118838BDC8
:1054D0001A89520708D55B6958694FF47A710C3004
:1054E00000F07AFD0130EFD0064A054854700323DE
:1054F000240A02211570947000F014FFE4E700BF45
:10550000B42500204E21002013B504460748C26888
:105510000B461AB1019100F0E7FB019B044A0348D6
:10552000214602B0BDE8104000F098BB18210020D1
:105530003555000838B50446202383F311880378D5
:10554000042B03D0002383F3118838BD124B1B7842
:10555000DB09F7D1114D2B78002BF3D0104B1B78C2
:10556000002BEFD003899B0704D40E4A08230121A6
:1055700000F0D8FE28780C4BA0FB03034FF47A729E
:10558000002300F2E7300021FAF7B8FE2146800040
:10559000FFF7BAFFD6E700BF082200201421002041
:1055A000A00D00202D210020A086010038B590F824
:1055B000743003F07F02212A04466ED113F0800F6D
:1055C00090F8750021D0022819D003280ED00128A8
:1055D00063D194F878302BB93F4AA2662022E26664
:1055E000236738BD0023A366E366F9E7B4F8783093
:1055F000002B52D1394AA2660120E066F0E7384B11
:10560000A3660120E0660023EAE70A283CD00B28C5
:105610000DD0092841D194F87830012B3DD8314B79
:10562000A3660223E366304B23670120D9E7B4F871
:1056300078302BBB94F87650284B002D14BF0121F5
:1056400000211970294B1A7861F3C7121A7017D10B
:10565000234B1A78A2B1202282F311881878244BA8
:10566000A0FB03034FF47A72002300F2E73000211D
:10567000FAF744FE21468000FFF746FF85F31188C4
:105680000023A366E366CFE71849154B097894F821
:1056900077201A70CD09F3D1DCE7B4F8742040F21A
:1056A00081639A4201D000209BE794F879206168D9
:1056B00094F878304D6894F8771043EA0223204636
:1056C00094F87620A8470028EDD04368A3660368C5
:1056D000E3660023A8E700BF2D210020A00D0020D5
:1056E00014210020542100208954000808220020A1
:1056F000A086010010B5064A064C117824784B1C90
:1057000003F00F039C421EBF034C1370605410BD86
:10571000EC230020ED230020DC23002007B5052921
:1057200024D8DFE801F01F23031F1F21202383F368
:105730001188104A0190012100F0A2FD0E4A019843
:10574000022100F09DFD002383F311880B4B1B7891
:1057500013B10520FFF7CEFF022003B05DF804EB84
:10576000FFF7C8BF0846F8E70520F6E703B05DF885
:1057700004FB00BF608B0008848B00084D210020D3
:105780007047000008B510220448002101F0C7FF4F
:10579000034A00231370034A137008BDDC23002062
:1057A000EC230020ED23002070B5284D284C2878EC
:1057B0002378284E0021984230D101B1207070BD6D
:1057C0002370254B01221A70244B93F87F10081E7A
:1057D00018BF0120FFF74AFDE9E723701E4B0022A6
:1057E0001A70FFF789FD1D4B93F87F10081E18BF34
:1057F0000120FFF745FDDAE72370184B93F87F107F
:10580000081E18BF0120FFF725FDD0E700212370F7
:105810000846F8E72370FFF735FDC8E71A4601335D
:10582000B25C03F00F030121052AC4D80FF2040C67
:105830005CF822F015580008B7570008F95700081F
:105840000D580008C1570008DB570008EC23002062
:10585000ED230020DC2300204D210020B425002072
:1058600070B54FF0904501224FF4805104464FF43B
:1058700080564FF0904001F0F2F941F288306E838B
:1058800000F09DFB0649204600F0BDFC40F202728C
:105890003146284601F0E3F9024B0022DA6070BD80
:1058A000A88B00081821002070B54FF090450446E1
:1058B0004FF4805600F0BAFC01224FF480514FF0B3
:1058C000904001F0CCF9204605496E8300F09BFC26
:1058D0003146284640F20272BDE8704001F0BFB97F
:1058E000A88B0008014B1878704700BF2C210020BE
:1058F00038B50546202383F311881D4C2378042BEB
:1059000020D11C4A238992F90020002A1EDA1A4A63
:105910001278DAB15A070BD420232A460221144800
:1059200000F000FD20222946144801F0EAFE09E0BB
:10593000636958694FF0FF310C3000F04DFB23785C
:10594000042BE9D0002383F3118838BD9B0703D4CF
:1059500008232A460121E2E7236958694FF0FF3105
:105960000C3000F039FB2378042BEBD1F0E700BFBB
:10597000B425002008220020A00D00202D210020A9
:1059800007B52023024683F311880F4B19780429A9
:1059900005D0002383F3118803B05DF804FB198957
:1059A00049070AD55B69019058694FF47A710C3048
:1059B00000F012FB0130019AEBD0034806230221CC
:1059C00000F0B0FCE5E700BFB4250020014603204D
:1059D000FFF770BD01460420FFF76CBD7047FFF76D
:1059E00017BD7047704708B5FFF7F9FF01F000FEDB
:1059F000FFF7F7FF08BD08B501F036FEFFF7F2FF2D
:105A000008BDFFF749BC000008B5FFF7BBFE06481C
:105A1000FFF726FF054B064A1A6041F28830BDE8C1
:105A2000084000F0CCBA00BFB42500206C21002053
:105A3000A40D0020014B1868FFF7E4BA6C21002088
:105A400010B50E4CFFF7B0FE2378052B15D1237847
:105A5000052B05D0FBF7EAFEBDE81040FCF754BD6E
:105A6000FFF741FCFFF726FC0028F0D0204600F0AD
:105A70006BFC2046FFF718FFE9E710BDB4250020B6
:105A80007047000010B5040A032C0FD007D8012C72
:105A900021D0022C07D1144B3B20136010BD212CC8
:105AA0000DD0222C11D000200346F6E7C0B2022808
:105AB000F9D80E4B0E4953F82030085CEDE769B178
:105AC0000129F0D10B4B0920E7E751B10129EAD1B7
:105AD000094BB620E1E7094B1220DEE7084B09200D
